:020000040000FA
:020000000528D1
:08000800090083161E3085007B
:10001000003086008030810000308B0083121E305B
:100020009F00850186018601051D2C281728851C47
:1000300045281A28851D5E281D28051E77281328A7
:100040000519132808008518132808008519132896
:100050000800051A132808000614202090202020EC
:10006000061020208614202090202020861020209A
:100070000615202090202020061120208615202003
:1000800090202020861120202C2806142320982040
:100090002320061023208614232098202320861056
:1000A00023200615232098202320061123208615BF
:1000B00023209820232086112320452886152620DA
:1000C0009020262086112620061526209020262006
:1000D0000611262086142620902026208610262011
:1000E0000614262090202620061026205E2886153D
:1000F00029209820292086112920061529209820BA
:1001000029200611292086142920982029208610CC
:100110002920061429209820292006102920772834
:100120000230A000000098200000A00B92280800D8
:100130000730A1009F200000A10B9A2808005A3028
:0C014000A2000000A20BA1280000080093
:02400E00783FF9
:00000001FF
