:020000040000FA
:020000001128C5
:08000800A200030E83010A08A7
:100010008A01242024088A00230E8300A20E220EC7
:100020000900850186018316063085003B30860075
:10003000C1308100B8308B008312063081006430FB
:10004000A0001430A00023280B182B208B182E2082
:100050000B19312008000B10861708008B100617AB
:1000600008000B11A00B3528382806308100080045
:10007000A10B3D280613861308006430A00006304B
:0400800081000800F3
:02400E00703F01
:00000001FF
