:020000040000FA
:020000000528D1
:08000800090083160230850097
:10001000003086008030810000308B008312073072
:100020009F0085018601A0018610851C15281828CF
:10003000FA30A100C830A200A10B1C281F28A20B77
:100040001C2822288518222825280330A00A2006EB
:10005000031D15282B2886142E2013280530A700F1
:100060003420A70B302808000230A6003A20A60B47
:10007000362808000230A5004020A50B3C280800C7
:10008000FA30A300F830A4000000A40B4428A30B0E
:0400900042280800FA
:02400E00783FF9
:00000001FF
