:020000040000FA
:020000000528D1
:08000800090083160130850098
:10001000003086008030810000308B008312073072
:100020009F00850186014820A20122083020860019
:100030003C20051819281C28A00B1C281F28A10BE0
:100040001F282228A20A2208302086003C200930DE
:100050002206031D2228A201302086003C202228EF
:1000600082076F34EF342C34E73467342B346D342B
:10007000CD342834EE3408000230A6004220A60B0E
:100080003E2808000230A5004820A50B442808009F
:10009000FA30A300F930A4000000A40B4C28A30BF5
:0400A0004A280800E2
:02400E00783FF9
:00000001FF
