:020000040000FA
:020000000528D1
:08000800090083161830850081
:10001000003086008030810082308B0083120730F0
:100020009F0085018601061185191A281728051ACF
:100030001A281428FA30A100C830A200A10B1E28EB
:100040002128A20B1E282428851D2B28051E2D28BB
:100050002428061513288614132886101328023026
:10006000A6003520A60B312808000230A5003B2051
:10007000A50B37280800FA30A300F830A4000000D0
:0A008000A40B3F28A30B3D28080045
:02400E00783FF9
:00000001FF
